S32D0000000090000218324D0000122B000F122D004D342C0000900720031B0000189B0720011B0000039B072000E1
S32D0000000A328D0000920000B4C2000017382C00001500004DC10000B6C20000C892100000C20001509210000EBE
S32D00000014C200009392100010951000113D5D00001DDBFFB0A0D000028D0000B450D000008D0002181DD0000158
S32D0000001E9D000218900720038D0000B31DD20001A0D000029D0000B3200E00001D0000029D0000B38D0000B572
S32D0000002891D0000192D0000293D0000394D0000495D0000596D0000697D0000798D0000899D000099AD0000A7C
S32D000000329BD0000B9CD0000C31BD000091D0000D319D000091D00010314D000091D000118D0000B58DD0000088
S32D0000003C9D0000B58D0000B581D0000D3B1C000081D00010391C000081D00011341C000081D0000182D000023F
S32D0000004683D0000384D0000485D0000586D0000687D0000788D0000889D000098AD0000A8BD0000B8CD0000CD6
S32D00000050200E00001EE300039BE000009CE000019DE000023D0E00071DDD30068CE000031CC603E81CC8000A2D
S32D0000005A9CD000003D0E00071DDD30078CE000031CC600641CC8000A9CD000001D01000A3C0E00071CCD3008E0
S32D000000648BE000030BB6000D0DB8000D9DC000003D0E00071DDD30098CE000031CC8000A9CD000008BE000004A
S32D0000006E8CE000018DE000021EE1000350F000001EE300039BE000009CE000019DE000023D0E00071DDD300649
S32D000000788CE000031CC610001CC800109CD000003D0E00071DDD30078CE000031CC601001CC800109CD0000064
S32D000000821D0100103C0E00071CCD30088BE000030BB6000D0DB8000D9DC000003D0E00071DDD30098CE0000351
S32D0000008C1CC800109CD000008BE000008CE000018DE000021EE1000350F000001EE3000596E0000197E0000267
S32D000000969DE000039FE000040601000007010000400000AC3D0E00071DDD300086D000003D0E00071DDD3001EF
S32D000000A087D000003D7A0001B0D0000296E00000600000513D7A0002B0D0000296E00000600000723D7A00043C
S32D000000AAB0D00001400000AD4000009B86E0000187E000028DE000038FE000041EE1000550F0000000000002E6
S70500000000FA
